:10090700AF0C050C1209A2E50C2430F508E4F50933
:10091700FB7A007908FDFF1208007FE87E030208D2
:01092700E9E6
:0B097C0012092812095C12090780FB19
:0B098700EF1FAC0670011E4C70F62242
:1008D600C2A5C2A78F807F017E001208E9D2A77F3A
:0308E600017E0090
:1008E900D3EF9400EE940040147D6E7C00ED1D70F2
:0D08F900011CED4C70F7EF1F70E61E80E350
:0109060022CE
:08099200C2A61208D6C2A7227A
:08099A00D2A61208D6C2A72262
:10095C007F381209927F0C1209927F061209927F3E
:04096C0001020992E9
:0509AA007F010209922B
:020800008F0A5D
:10080200E4F50BE50AD3940F40047F0180027F00D8
:10081200EDD3940140047E0180027E00EE4F706CA5
:10082200EDC3940150331209436061C37410950AF9
:10083200FFE50BC39FE50B50062480250A800425A3
:100842000A24B0FF120992120943FF12099A740195
:1008520029F9E43AFA050B80CD120943602EC374DC
:1008620010950AFFE50BC39FE50B500624C0250A2D
:100872008004250A2470FF120992120943FF12090B
:0C0882009A740129F9E43AFA050B80CDC4
:01088E002247
:0300230002088F41
:10088F00C0E0C0F0C083C082C0D075D000C000C02F
:10089F0001C002C003C004C005C006C00730980CD9
:1008AF00E599F4F5A0AF991209A2C298D007D00626
:1008BF00D005D004D003D002D001D000D0D0D08248
:0708CF00D083D0F0D0E0322D
:0809A2008F993099FDC29922E2
:1009280043878075985053890F438920758BF475D8
:0B0938008DF4C2ABD28ED2AFD2AC2245
:0300000002097082
:0C097000787FE4F6D8FD75810C02097C4C
:10094300BB010689828A83E0225002E722BBFE02B2
:09095300E32289828A83E49322E5
:00000001FF
