:0908C000E4F5081208EC12091E0F
:1008C900AF080508120964E5082430F509E4F50ABA
:1008D900FB7A007909FDFF1208007FE87E03120800
:0108E900A26C
:0208EA0080DDAF
:0B093E00EF1FAC0670011E4C70F6228B
:10088F00C2A5C2A78F807F017E001208A2D2A77FC8
:03089F00017E00D7
:1008A200D3EF9400EE940040147D6E7C00ED1D7039
:0D08B200011CED4C70F7EF1F70E61E80E397
:0108BF002216
:08095400C2A612088FC2A722FF
:08095C00D2A612088FC2A722E7
:10091E007F381209547F0C1209547F061209547F36
:04092E000102095465
:05096C007F01020954A7
:020800008F0B5C
:10080200E4F50CE50BD3940F40047F0180027F00D6
:10081200EDD3940140047E0180027E00EE4F706CA5
:10082200EDC3940150331209056061C37410950B36
:10083200FFE50CC39FE50C50062480250B800425A0
:100842000B24B0FF120954120905FF12095C74014E
:1008520029F9E43AFA050C80CD120905602EC37419
:1008620010950BFFE50CC39FE50C500624C0250B29
:100872008004250B2470FF120954120905FF120986
:0C0882005C740129F9E43AFA050C80CD01
:01088E002247
:0300230002094986
:0B094900309902C299309802C2983227
:080964008F993099FDC2992220
:1008EC0043878075985053890F438920758BF47515
:0908FC008DF4C2ABD28ED2AC2205
:03000000020932C0
:0C093200787FE4F6D8FD75810C0208C047
:10090500BB010689828A83E0225002E722BBFE02F0
:09091500E32289828A83E4932223
:00000001FF
