:100C1E00000A000A000A000A000A000A000A000A76
:100B99001616003F0006005B004F0066006D007DE1
:100BA9000007007F006F000008081C1814100C08CB
:100BB900040002100000022E00000212E0FF0214DD
:060BC900E0FF022C000118
:0E0BFC00EF25E02416F808E6F580AF2DAE2CAC
:100C0A00EF4E600F7D027CC7DCFEDDFCEF1F70F04B
:030C1A001E80ED4C
:010C1D0022B4
:070C2E008508A07580062275
:100BD0008508A0E4F5800511E511AE10700205103E
:100BE00014FF7C007D0A1208F6ED25E02416F808B3
:0C0BF000E6F5807FE87E03120C0A80DA34
:030B6200E4F58037
:100B6500E4F54EF54F7F017E00120C0AAF4F740875
:100B75002FF8E6F5A0EF25E02416F808E6F5800540
:100B85004FE54F7002054EC39408E54E648094808E
:040B950040D380CCFD
:040A0D008E348F355F
:100A1100851436851537E4F538F539783A7C00FDCB
:100A21007BFF7A0C791EFE7F101208D0D3E5379434
:100A310000E536648094804030AE36AF377C007D6F
:100A41000A12094BE53925E0243AF8A60408A6055F
:100A5100AE36AF377C007D0A12094B8E368F3705D3
:100A610039E53970C7053880C3D3E5359539E5389F
:100A71006480F8E53464809840057E007F0A22E5B1
:0B0A81003525E02438F8E6FE08E6FF0B
:010A8C002247
:030AF900E4F580A1
:100AFC00E4F54AF54BF5A0C3E54B94E8E54A9403BD
:020B0C00503E59
:100B0E00754C00754D01D3E54D9408E54C64809409
:100B1E008050E27407254DF8E6F5A0AF4DAE4C12AD
:100B2E000A0D120BFCE4F580E52D254BF54BE52C5B
:0E0B3E00354AF54A054DE54D70CC054C80C892
:100B4C00E515151570021514E515451470A28512DE
:040B5C0014851315D4
:020B6000809A79
:030A8D00E4F5800D
:100A9000E4F530F531F5A0C3E53194E8E530940391
:020AA0005041C3
:100AA200753200753301D3E5339408E532648094DE
:100AB2008050E2C3740895332408F8E6F5A0AF33FA
:100AC200AE32120A0D120BFCE4F580E52D2531F54C
:100AD20031E52C3530F5300533E53370C905328008
:010AE200C54E
:100AE300E515151570021514E5154514709F85124B
:040AF300148513153E
:020AF7008097E6
:050C3500120A8D80FE93
:0300000002098171
:0C098100787FE4F6D8FD75814F0209C8AC
:10080000E709F608DFFA8046E709F208DFFA803EDA
:1008100088828C83E709F0A3DFFA8032E309F608C7
:10082000DFFA8078E309F208DFFA807088828C832F
:10083000E309F0A3DFFA806489828A83E0A3F608E3
:10084000DFFA805889828A83E0A3F208DFFA804CBD
:1008500080D280FA80C680D4806980F28033801094
:1008600080A680EA809A80A880DA80E280CA8033FD
:1008700089828A83ECFAE493A3C8C582C8CCC58375
:10088000CCF0A3C8C582C8CCC583CCDFE9DEE78045
:100890000D89828A83E493A3F608DFF9ECFAA9F0C4
:1008A000EDFB2289828A83ECFAE0A3C8C582C8CC1A
:1008B000C583CCF0A3C8C582C8CCC583CCDFEADE33
:1008C000E880DB89828A83E493A3F208DFF980CC95
:1008D00088F0EF60010E4E60C388F0ED2402B4048E
:1008E0000050B9F582EB2402B4040050AF23234535
:0608F00082239008507302
:1008F600BC000BBE0029EF8DF084FFADF022E4CCE6
:10090600F875F008EF2FFFEE33FEEC33FCEE9DECAE
:10091600984005FCEE9DFE0FD5F0E9E4CEFD22EDF4
:10092600F8F5F0EE8420D21CFEADF075F008EF2F3E
:10093600FFED33FD4007985006D5F0F222C398FD2F
:050946000FD5F0EA22CC
:10094B00C2D5EC30E709B2D5E4C39DFDE49CFCEEC7
:10095B0030E715B2D5E4C39FFFE49EFE1208F6C341
:10096B00E49DFDE49CFC80031208F630D507C3E43C
:06097B009FFFE49EFE2236
:10098D00020C35E493A3F8E493A34003F68001F23F
:10099D0008DFF48029E493A3F85407240CC8C3336B
:1009AD00C4540F4420C8834004F456800146F6DF3A
:1009BD00E4800B0102040810204080900B99E47E26
:1009CD00019360BCA3FF543F30E509541FFEE4932F
:1009DD00A360010ECF54C025E060A840B8E493A3F6
:1009ED00FAE493A3F8E493A3C8C582C8CAC583CA21
:1009FD00F0A3C8C582C8CAC583CADFE9DEE780BED9
:010BCF000025
:00000001FF
