:100D3300000A000A000A000A000A000A000A000A60
:100C7300161A003F0006005B004F0066006D007D02
:100C83000007007F006F000008081C1814100C08F0
:100C930004000210000002320000041205F5E0FF18
:0A0CA300041605F5E0FF0230000121
:0E0D1100EF25E0241AF808E6F580AF31AE3089
:100D1F00EF4E600F7D027CC7DCFEDDFCEF1F70F035
:030D2F001E80ED36
:010D3200229E
:070D43008508A0758006225F
:100CE5008508A0E4F5800511E511AE107002051028
:100CF50014FF7C007D0A1208F6ED25E0241AF80899
:0C0D0500E6F5807FE87E03120D1F80DA07
:030CAE00E4F580EA
:100CB100E4F554F5557F017E00120D1FAF55740800
:100CC1002FF8E6F5A0EF25E0241AF808E6F58005EF
:100CD10055E55570020554C39408E5546480948029
:040CE10040D380CCB0
:040A2A008E388F393A
:100A2E0085193D85183C85173B85163AE4F53EF54C
:100A3E003F78407C00FD7BFF7A0D7933FE7F1012EC
:100A4E0008D0E4FFFEFDFCAB3DAA3CA93BA83AD37F
:100A5E00120A194044E47B0AFAF9F8AF3DAE3CADF8
:100A6E003BAC3A120987AE02AF03E53F25E02440C6
:100A7E00F8A60608A607AF3DAE3CAD3BAC3AE47B0C
:100A8E000AFAF9F81209878F3D8E3C8D3B8C3A0598
:100A9E003FE53F70AD053E80A9D3E539953FE53E74
:100AAE006480F8E53864809840057E007F0A22E570
:0B0ABE003925E0243EF8E6FE08E6FFC4
:010AC900220A
:030B5A00E4F5803F
:100B5D00E4F550F551F5A0C3E55194E8E550940343
:020B6D00503EF8
:100B6F00755200755301D3E5539408E55264809490
:100B7F008050E274072553F8E6F5A0AF53AE52123A
:100B8F000A2A120D11E4F580E5312551F551E530B2
:0E0B9F003550F5500553E55370CC055280C813
:100BAD00E51924FFF519E51834FFF518E51734FF9D
:100BBD00F517E51634FFF516E4FFFEFDFCAB19AA9B
:100BCD0018A917A816C3120A197085851519851449
:070BDD00188513178512169D
:030BE400020B5DA4
:030ACA00E4F580D0
:100ACD00E4F534F535F5A0C3E53594E8E534940344
:020ADD00504186
:100ADF00753600753701D3E5379408E53664809491
:100AEF008050E2C3740895372408F8E6F5A0AF37B5
:100AFF00AE36120A2A120D11E4F580E5312535F5CF
:100B0F0035E5303534F5340537E53770C9053680AE
:010B1F00C510
:100B2000E51924FFF519E51834FFF518E51734FF2A
:100B3000F517E51634FFF516E4FFFEFDFCAB19AA28
:100B400018A917A816C3120A1970828515198514D9
:070B5000188513178512162A
:030B5700020ACDC2
:050D4A00120ACA80FE40
:03000000020BE709
:0C0BE700787FE4F6D8FD758155020C2ED5
:10080000E709F608DFFA8046E709F208DFFA803EDA
:1008100088828C83E709F0A3DFFA8032E309F608C7
:10082000DFFA8078E309F208DFFA807088828C832F
:10083000E309F0A3DFFA806489828A83E0A3F608E3
:10084000DFFA805889828A83E0A3F208DFFA804CBD
:1008500080D280FA80C680D4806980F28033801094
:1008600080A680EA809A80A880DA80E280CA8033FD
:1008700089828A83ECFAE493A3C8C582C8CCC58375
:10088000CCF0A3C8C582C8CCC583CCDFE9DEE78045
:100890000D89828A83E493A3F608DFF9ECFAA9F0C4
:1008A000EDFB2289828A83ECFAE0A3C8C582C8CC1A
:1008B000C583CCF0A3C8C582C8CCC583CCDFEADE33
:1008C000E880DB89828A83E493A3F208DFF980CC95
:1008D00088F0EF60010E4E60C388F0ED2402B4048E
:1008E0000050B9F582EB2402B4040050AF23234535
:0608F00082239008507302
:1008F600BC000BBE0029EF8DF084FFADF022E4CCE6
:10090600F875F008EF2FFFEE33FEEC33FCEE9DECAE
:10091600984005FCEE9DFE0FD5F0E9E4CEFD22EDF4
:10092600F8F5F0EE8420D21CFEADF075F008EF2F3E
:10093600FFED33FD4007985006D5F0F222C398FD2F
:050946000FD5F0EA22CC
:10094B0075F008758200EF2FFFEE33FECD33CDCC63
:10095B0033CCC58233C5829BED9AEC99E5829840E6
:10096B000CF582EE9BFEED9AFDEC99FC0FD5F0D6C3
:10097B00E4CEFBE4CDFAE4CCF9A88222B800C1B9ED
:10098B000059BA002DEC8BF084CFCECDFCE5F0CB2B
:10099B00F97818EF2FFFEE33FEED33FDEC33FCEB64
:1009AB0033FB10D703994004EB99FB0FD8E5E4F91F
:1009BB00FA227818EF2FFFEE33FEED33FDEC33FC0C
:1009CB00C933C910D7059BE99A4007EC9BFCE99A00
:1009DB00F90FD8E0E4C9FAE4CCFB2275F010EF2F45
:1009EB00FFEE33FEED33FDCC33CCC833C810D70745
:1009FB009BEC9AE899400AED9BFDEC9AFCE899F880
:0E0A0B000FD5F0DAE4CDFBE4CCFAE4C8F92212
:100A1900EB9FF5F0EA9E42F0E99D42F0E89C45F033
:010A290022AA
:100BF300020D4AE493A3F8E493A34003F68001F2C1
:100C030008DFF48029E493A3F85407240CC8C33302
:100C1300C4540F4420C8834004F456800146F6DFD1
:100C2300E4800B0102040810204080900C73E47EE2
:100C3300019360BCA3FF543F30E509541FFEE493C6
:100C4300A360010ECF54C025E060A840B8E493A38D
:100C5300FAE493A3F8E493A3C8C582C8CAC583CAB8
:100C6300F0A3C8C582C8CAC583CADFE9DEE780BE70
:010CAD000046
:00000001FF
