:0408AB007F147E0038
:1008AF00EF4E600F7D0B7CBEDCFEDDFCEF1F70F0AA
:0308BF001E80EDAB
:0108C2002213
:0B08E10020B104C2A080F9D2A080F575
:1008C300D2A020B1FD1208AB30B1FD1208ABB2A02B
:0208D30080F0B3
:10087300E4FBFA20B1FD1208AB30B1FD1208AB0B5B
:0D088300BB00010A75A0FFEBF452A080E657
:10089000E4FBFA30B1FD7F327E001208AF0BBB00E3
:0B08A000010A75A0FFEBF452A080E8F5
:100800007B017A007401F4F5A020B1FD1208AB3031
:10081000B1FD1208ABEB25E0FBEA33FAD3EB948091
:10082000EA940040067E007F018004AE02AF03AA76
:0C08300006AB0775A0FFEBF4F5A080CD2F
:10083C007B017A007401F4F5A07F647E001208AF8E
:10084C00EB25E0FBEA33FAD3EB9480EA9400400604
:10085C007E007F018004AE02AF03AA06AB0775A031
:07086C00FFEBF4F5A080D2C0
:0308EC0002083CC3
:030000000208D51E
:0C08D500787FE4F6D8FD7581070208EC7E
:00000001FF
