:050AB50074696D65008D
:0C0A8D00010A000108000114000109002A
:100A4B00ED75F00A842430120934ED75F00A84E553
:090A5B00F024309000010209466C
:100A1C00AE03AC0575103A750D3A7B007A00790B74
:100A2C00AD07120A4B7A00790EAD04120A4B7A000C
:0F0A3C007911AD06120A4BE4F5137A00790B22FB
:03000B000209AA3D
:1009AA00C0E0C0D0758A18758CFC0509E50964E8B1
:1009BA00700274037026B2A0F5090514E514C394F5
:1009CA003C40197514000508E508943C400E75086A
:1009DA0000050AE50A94184003750A00D0D0D0E051
:0109EA0032DA
:100A64005389F0438901758A18758CFCC28DD28C28
:050A7400D2A9D2AF225F
:10096800851415120A64120A79AB140514AD08AF80
:100978000A120A1CE4FDFF120800E514651560FA66
:100988007BFF7A0A79B57D01E4FF120800AB14AD4C
:1009980008AF0A120A1C7D017F0812080085141589
:0209A80080D8F5
:0B0A9A00EF1FAC0670011E4C70F6222E
:1009EB00C2A5C2A78F807F017E001209FED2A77F0E
:0309FB00017E007A
:1009FE00D3EF9400EE940040147D6E7C00ED1D70DC
:0D0A0E00011CED4C70F7EF1F70E61E80E339
:010A1B0022B8
:080AA500C2A61209EBC2A72250
:080AAD00D2A61209EBC2A72238
:100A79007F38120AA57F0C120AA57F06120AA57FE4
:040A890001020AA5B7
:050ABA007F01020AA506
:020800008F1651
:10080200E4F517E516D3940F40047F0180027F00C0
:10081200EDD3940140047E0180027E00EE4F706CA5
:10082200EDC39401503312091B6061C37410951615
:10083200FFE517C39FE5175006248025168004257F
:100842001624B0FF120AA512091BFF120AAD740189
:1008520029F9E43AFA051780CD12091B602EC374F8
:10086200109516FFE517C39FE517500624C02516FD
:10087200800425162470FF120AA512091BFF120A12
:0C088200AD740129F9E43AFA051780CDA5
:01088E002247
:0300000002088F64
:0C088F00787FE4F6D8FD7581170208D6CA
:10091B00BB010689828A83E0225002E722BBFE02DA
:09092B00E32289828A83E493220D
:10093400BB010689828A83F0225002F722BBFE01A2
:02094400F3229C
:10094600F8BB010DE58229F582E5833AF583E8F0E7
:10095600225006E92582C8F622BBFE05E92582C893
:02096600F2227B
:10089B00020968E493A3F8E493A34003F68001F202
:1008AB0008DFF48029E493A3F85407240CC8C3335E
:1008BB00C4540F4420C8834004F456800146F6DF2D
:1008CB00E4800B0102040810204080900A8DE47E26
:1008DB00019360BCA3FF543F30E509541FFEE49322
:1008EB00A360010ECF54C025E060A840B8E493A3E9
:1008FB00FAE493A3F8E493A3C8C582C8CAC583CA14
:10090B00F0A3C8C582C8CAC583CADFE9DEE780BECB
:010A9900005C
:00000001FF
