:100A9C00010B00010800011600010C000209000006
:100A5A00ED75F00A842430120934ED75F00A84E544
:090A6A00F024309000010209465D
:0609F400AB16AD08AF0BCD
:1009FA00AE03AC0575123A750F3A7B007A00790D91
:100A0A00AD07120A5A7A007910AD04120A5A7A000E
:0F0A1A007913AD06120A5AE4F5157A00790D2208
:100A73005389F0438901758A18758CFCC28DD28C19
:050A8300D2A9D2AF2250
:1009B300851617120A73120A881209F4E4FDFF124E
:0209C30008002A
:1009C500E50C75F00A84E5F02430F518E4F519FB1B
:1009D5007A0079187D01FF120800E516651760E0B9
:0D09E5001209F47D017F0812080085161725
:0209F20080D1B2
:03000B000209687F
:10096800C0E0C0D0758A18758CFC050AE50A7002CB
:10097800050964E87004E5096403702AB2A0F50962
:10098800F50A0516050CE516C3943C4019751600C2
:100998000508E508943C400E750800050BE50B9426
:0B09A800184003750B00D0D0D0E032E7
:0B0AAD00EF1FAC0670011E4C70F6221B
:100A2900C2A5C2A78F807F017E00120A3CD2A77F90
:030A3900017E003B
:100A3C00D3EF9400EE940040147D6E7C00ED1D709D
:0D0A4C00011CED4C70F7EF1F70E61E80E3FB
:010A5900227A
:080AB800C2A6120A29C2A722FE
:080AC000D2A6120A29C2A722E6
:100A88007F38120AB87F0C120AB87F06120AB87F9C
:040A980001020AB895
:050AC8007F01020AB8E5
:020800008F1A4D
:10080200E4F51BE51AD3940F40047F0180027F00B8
:10081200EDD3940140047E0180027E00EE4F706CA5
:10082200EDC39401503312091B6061C37410951A11
:10083200FFE51BC39FE51B50062480251A80042573
:100842001A24B0FF120AB812091BFF120AC074015F
:1008520029F9E43AFA051B80CD12091B602EC374F4
:1008620010951AFFE51BC39FE51B500624C0251AED
:100872008004251A2470FF120AB812091BFF120AFB
:0C088200C0740129F9E43AFA051B80CD8E
:01088E002247
:0300000002088F64
:0C088F00787FE4F6D8FD75811B0208D6C6
:10091B00BB010689828A83E0225002E722BBFE02DA
:09092B00E32289828A83E493220D
:10093400BB010689828A83F0225002F722BBFE01A2
:02094400F3229C
:10094600F8BB010DE58229F582E5833AF583E8F0E7
:10095600225006E92582C8F622BBFE05E92582C893
:02096600F2227B
:10089B000209B3E493A3F8E493A34003F68001F2B7
:1008AB0008DFF48029E493A3F85407240CC8C3335E
:1008BB00C4540F4420C8834004F456800146F6DF2D
:1008CB00E4800B0102040810204080900A9CE47E17
:1008DB00019360BCA3FF543F30E509541FFEE49322
:1008EB00A360010ECF54C025E060A840B8E493A3E9
:1008FB00FAE493A3F8E493A3C8C582C8CAC583CA14
:10090B00F0A3C8C582C8CAC583CADFE9DEE780BECB
:010AAC000049
:00000001FF
