:10103F002D2D2D2D2D2D0050617373776F72643A06
:10104F0000496E7075743A00202020004F4B002D20
:10105F00002020202020002D2D2D2D77656C636F13
:10106F006D652D2D2D2D2D002020202020202020BE
:10107F002020202020202020002D2D2D2D2D4C6FC5
:10108F00636B65642D2D2D2D2D00313233343536A4
:08109F00000000000000000049
:0F10A7007525007526007527117B007A007909E1
:0610B6008B228A2389242D
:1010BC00E47BFF7A10793F7D017F06120F9EAB22F5
:1010CC00AA23A924740612090FE4FFAB25AA26A9AA
:0E10DC00278F82758300E41209210FBF06EDF5
:0110EA0022E3
:100B6900E4F508750906780A7C00FD7BFF7A10799F
:100B790099FE7F071208D078117C007D007BFF7AEF
:100B89001079A07E007F071208D0E4F518751903C3
:100B9900751A03751B0112116A7BFF7A107946E4F5
:100BA900FDFF120F9E7BFF7A1079507D01E4FF1241
:100BB9000F9E7BFF7A10793F7D017F06120F9E12EF
:100BC9000E158F08E50860F7640A705BF517781150
:100BD9007C00FDFB7A00790A120AF7EF70227BFF8D
:100BE9007A107957FD7F0B120F9E7BFF7A10795B84
:100BF900E4FD7F0E120F9E1210A7E4F518020C886F
:100C0900751C45751D52751E52751F20E518243037
:100C1900F520E4F521FB7A00791CFD7F0B120F9E6C
:050C290005181210A7E0
:100C2E008058E508B40B1FE509D39406404C15090E
:100C3E00AF097BFF7A10795E7D01120F9E740B2532
:100C4E0009F8E4F68034E508D3940B4003020BC890
:070C5E00E509C3940C5023CB
:100C6500E5082430F51CE4F51DAF090509FB7A00FC
:100C7500791C7D01120F9EE5082430FF740A2509B1
:030C8500F8A607C7
:100C8800E509640C6003020D26F51778117C00FD58
:100C9800FB7A00790A120AF7EF705E7BFF7A107907
:100CA80060FD7F0B120F9E7BFF7A10795BE4FD7F5E
:100CB8000E120F9E7BFF7A1079667D01E4FF120FFA
:100CC8009E12117E12117E12117E7BFF7A107977A7
:100CD8007D01E4FF120F9E7BFF7A1079507D01E4BD
:100CE800FF120F9E7BFF7A10793F7D017F06120F5E
:090CF8009E1210A7E4F5188025F6
:100D0100751C45751D52751E52751F200518E51875
:100D11002430F520E4F521FB7A00791CFD7F0B12CC
:050D21000F9E1210A757
:090D2600E51865196003020BC811
:100D2F00E51A851BF0A485F01CF51DD39463E51C13
:100D3F006480948040067E007F638004AE1CAF1DEC
:100D4F008E1C8F1D051B7BFF7A1079887D01E4FFB8
:100D5F00120F9E7BFF7A107957E4FD7F0B120F9EC7
:100D6F00D3E51D9400E51C648094804060E51D94DC
:090D7F000AE51C64809480501602
:100D8800E51D2430F51E751F73E4F520FB7A007904
:040D98001EFD7F0EAF
:020D9C00802EA7
:100D9E00AE1CAF1D7C007D0A120943EF2430F51EF8
:100DAE00AE1CAF1D7C007D0A120943ED2430F51FE9
:100DBE00752073E4F521FB7A00791EFD7F0D120F6D
:010DCE009E86
:100DCF0012117EE51D151D7097151C80937BFF7A00
:100DDF00107957E4FD7F0D120F9E7BFF7A10797704
:100DEF007D01E4FF120F9EE4F5187BFF7A10795016
:100DFF007D01FF120F9E7BFF7A10793F7D017F06E9
:030E0F00120F9E21
:030E1200020BC808
:10114F00C2A6C2A5C2A78F807F017E00121131D225
:0B115F00A77F017E00121131C2A72201
:0A10EB00AB29AA2AA92B1208F6FF70
:1010F500D2A6C2A5C2A78F807F017E00121131D270
:0B110500A77F017E00121131C2A7225B
:10116A007F3812114F7F0C12114F7F0612114F7FD9
:04117A000102114F0E
:0511A2007F0102114F66
:080F9E008F288B298A2A892B78
:100FA600E4F52CE528D3940F40047F0180027F00EE
:100FB600EDD3940140047E0180027E00EE4F7078EE
:100FC600EDC394015039AB29AA2AA92B1208F66061
:100FD60067C374109528FFE52CC39FE52C500624A3
:100FE6008025288004252824B0FF12114F1210EB0B
:100FF6007401252BF52BE4352AF52A052C80C7AB81
:1010060029AA2AA92B1208F6602EC374109528FF68
:10101600E52CC39FE52C500624C0252880042528EE
:101026002470FF12114F1210EB7401252BF52BE4DF
:08103600352AF52A052C80C7BC
:01103E00228F
:10111000EFC3940A400A752D31EF2426F52E80087E
:10112000752D30EF2430F52EE4F52FFB7A00792D64
:01113000229C
:100E1500E4F5227590FFC2932097137F0AFE121105
:100E2500313097FD7F0A7E0012113175220120961F
:100E3500147F0A7E001211313096FD7F0A7E001262
:100E450011317522052095147F0A7E00121131306B
:100E550095FD7F0A7E001211317522092094147FB9
:100E65000A7E001211313094FD7F0A7E0012113185
:100E750075220D7590FFC2922097147F0A7E00128D
:100E850011313097FD7F0A7E001211317522022043
:100E950096147F0A7E001211313096FD7F0A7E007E
:100EA5001211317522062095147F0A7E0012113128
:100EB5003095FD7F0A7E0012113175220A209414A7
:100EC5007F0A7E001211313094FD7F0A7E001211D7
:100ED5003175220E7590FFC2912097147F0A7E000E
:100EE5001211313097FD7F0A7E00121131752203F0
:100EF5002096147F0A7E001211313096FD7F0A7EFE
:100F0500001211317522072095147F0A7E001211F7
:100F1500313095FD7F0A7E0012113175220B209428
:100F2500147F0A7E001211313094FD7F0A7E001273
:100F3500113175220F7590FFC2902097147F0A7E9C
:100F4500001211313097FD7F0A7E00121131752292
:100F5500042096147F0A7E001211313096FD7F0A17
:100F65007E001211317522082095147F0A7E001229
:100F750011313095FD7F0A7E0012113175220C204A
:100F850094147F0A7E001211313094FD7F0A7E0091
:080F9500121131752210AF2288
:010F9D002231
:0B119700EF1FAC0670011E4C70F6222A
:10113100D3EF9400EE940040147D6E7C00ED1D70A1
:0D114100011CED4C70F7EF1F70E61E80E3FF
:01114E00227E
:0C117E007F087E9A7D7ADDFEDEFCDFFA41
:01118A002242
:0300000002118B5F
:0C118B00787FE4F6D8FD75812F020B6917
:10080000E709F608DFFA8046E709F208DFFA803EDA
:1008100088828C83E709F0A3DFFA8032E309F608C7
:10082000DFFA8078E309F208DFFA807088828C832F
:10083000E309F0A3DFFA806489828A83E0A3F608E3
:10084000DFFA805889828A83E0A3F208DFFA804CBD
:1008500080D280FA80C680D4806980F28033801094
:1008600080A680EA809A80A880DA80E280CA8033FD
:1008700089828A83ECFAE493A3C8C582C8CCC58375
:10088000CCF0A3C8C582C8CCC583CCDFE9DEE78045
:100890000D89828A83E493A3F608DFF9ECFAA9F0C4
:1008A000EDFB2289828A83ECFAE0A3C8C582C8CC1A
:1008B000C583CCF0A3C8C582C8CCC583CCDFEADE33
:1008C000E880DB89828A83E493A3F208DFF980CC95
:1008D00088F0EF60010E4E60C388F0ED2402B4048E
:1008E0000050B9F582EB2402B4040050AF23234535
:0608F00082239008507302
:1008F600BB010689828A83E0225002E722BBFE0200
:09090600E32289828A83E4932232
:10090F00BB010689828A83F0225002F722BBFE01C7
:02091F00F322C1
:10092100F8BB010DE58229F582E5833AF583E8F00C
:10093100225006E92582C8F622BBFE05E92582C8B8
:02094100F222A0
:10094300C2D5EC30E709B2D5E4C39DFDE49CFCEECF
:1009530030E715B2D5E4C39FFFE49EFE120B14C328
:10096300E49DFDE49CFC8003120B1430D507C3E423
:060973009FFFE49EFE223E
:10097900E3F5F009E208B5F06D606B80F3E3F5F09B
:1009890009E608B5F060605E80F387F009E608B50E
:10099900F054605280F487F009E208B5F0486046E7
:1009A90080F488828C8387F009E0A3B5F03860363B
:1009B90080F488828C8387F009E493A3B5F02760DB
:1009C9002580F388828C83E3F5F009E0A3B5F0165E
:1009D900601480F388828C83E3F5F009E493A3B56E
:1009E900F004600280F2020AA4808580E7808E808C
:1009F900D2803C8015806C807E809B80B5808B8006
:100A0900A1804F8070803A020AB089828A83ECFA09
:100A1900E493F5F0A3C8C582C8CCC583CCE493A3FD
:100A2900C8C582C8CCC583CCB5F070606E80E18939
:100A3900828A83E493F5F0A3E208B5F05E605C80F6
:100A4900F289828A83E0F5F0A3E608B5F04D604BA0
:100A590080F389828A83E0F5F0A3E208B5F03C606F
:100A69003A80F389828A83E493F5F0A3E608B5F026
:100A79002A602880F2805389828A83ECFAE493F50C
:100A8900F0A3C8C582C8CCC583CCE0A3C8C582C8B9
:100A9900CCC583CCB5F004600280E27FFFB5F002DB
:100AA9000F2240027F012289828A83ECFAE0F5F065
:100AB900A3C8C582C8CCC583CCE0A3C8C582C8CCAD
:100AC900C583CCB5F0D560D380E389828A83ECFAFB
:100AD900E0F5F0A3C8C582C8CCC583CCE493A3C80C
:100AE900C582C8CCC583CCB5F0B160AF80E288F0CF
:100AF900ED2402B4040050A3F582EB2402B40400EF
:0B0B0900509923234582239009F273CA
:100B1400BC000BBE0029EF8DF084FFADF022E4CCC5
:100B2400F875F008EF2FFFEE33FEEC33FCEE9DEC8E
:100B3400984005FCEE9DFE0FD5F0E9E4CEFD22EDD4
:100B4400F8F5F0EE8420D21CFEADF075F008EF2F1E
:100B5400FFED33FD4007985006D5F0F222C398FD0F
:050B64000FD5F0EA22AC
:00000001FF
