:100AEA004D61747269784B657920696E56533A0084
:0A0AFA00496E7075743A0030300048
:100A2A00E4F508120B1D7BFF7A0A79EAE4FDFF124E
:100A3A0009897BFF7A0A79FA7D01E4FF1209897B29
:100A4A00FF7A0B79017D017F061209891208008F4E
:100A5A0008E50860F7120A907D017F06120989806D
:010A6A00EBA0
:100ACF00C2A6C2A5C2A78F807F017E00120AB1D233
:0B0ADF00A77F017E00120AB1C2A7220F
:0A0A6B00AB0AAA0BA90C120B04FF42
:100A7500D2A6C2A5C2A78F807F017E00120AB1D27D
:0B0A8500A77F017E00120AB1C2A72269
:100B1D007F38120ACF7F0C120ACF7F06120ACF7FC1
:040B2D0001020ACFE8
:050B48007F01020ACF4D
:080989008F098B0A8A0B890C0F
:10099100E4F50DE509D3940F40047F0180027F0047
:1009A100EDD3940140047E0180027E00EE4F707809
:1009B100EDC394015039AB0AAA0BA90C120B0460C8
:1009C10067C374109509FFE50DC39FE50D5006241B
:1009D1008025098004250924B0FF120ACF120A6B71
:1009E1007401250CF50CE4350BF50B050D80C7AB37
:1009F1000AAA0BA90C120B04602EC374109509FFEF
:100A0100E50DC39FE50D500624C025098004250985
:100A11002470FF120ACF120A6B7401250CF50CE445
:080A2100350BF50B050D80C734
:010A290022AA
:100A9000EFC3940A400A750E31EF2426F50F800843
:100AA000750E30EF2430F50FE4F510FB7A00790E67
:010AB0002223
:10080000E4F5097590FFC2932097137F0AFE120A40
:10081000B13097FD7F0A7E00120AB175090120965A
:10082000147F0A7E00120AB13096FD7F0A7E001204
:100830000AB17509052095147F0A7E00120AB130AD
:1008400095FD7F0A7E00120AB17509092094147F74
:100850000A7E00120AB13094FD7F0A7E00120AB1AE
:1008600075090D7590FFC2922097147F0A7E0012C1
:100870000AB13097FD7F0A7E00120AB17509022085
:1008800096147F0A7E00120AB13096FD7F0A7E0020
:10089000120AB17509062095147F0A7E00120AB16A
:1008A0003095FD7F0A7E00120AB175090A20941462
:1008B0007F0A7E00120AB13094FD7F0A7E00120A80
:1008C000B175090E7590FFC2912097147F0A7E00C2
:1008D000120AB13097FD7F0A7E00120AB175090332
:1008E0002096147F0A7E00120AB13096FD7F0A7EA0
:1008F00000120AB17509072095147F0A7E00120ABA
:10090000B13095FD7F0A7E00120AB175090B209463
:10091000147F0A7E00120AB13094FD7F0A7E001215
:100920000AB175090F7590FFC2902097147F0A7E57
:1009300000120AB13097FD7F0A7E00120AB17509D4
:10094000042096147F0A7E00120AB13096FD7F0AB9
:100950007E00120AB17509082095147F0A7E0012E4
:100960000AB13095FD7F0A7E00120AB175090C208C
:1009700094147F0A7E00120AB13094FD7F0A7E0033
:08098000120AB1750910AF095C
:01098800224C
:0B0B3D00EF1FAC0670011E4C70F6228A
:100AB100D3EF9400EE940040147D6E7C00ED1D7028
:0D0AC100011CED4C70F7EF1F70E61E80E386
:010ACE002205
:03000000020B31BF
:0C0B3100787FE4F6D8FD758110020A2AD6
:100B0400BB010689828A83E0225002E722BBFE02EF
:090B1400E32289828A83E4932222
:00000001FF
