:100E7F002D2D2D2D2D2D0050617373776F72643AC8
:100E8F0000496E7075743A00202020004F4B0045CA
:100E9F005252002D0031323334353600000000003D
:030EAF0000000040
:0F0E3B00751B00751C00751D117B007A0079096D
:060E4A008B188A19891AB9
:100E5000E47BFF7A0E797F7D017F06120D9AAB1835
:100E6000AA19A91A740612090FE4FFAB1BAA1CA940
:0E0E70001D8F82758300E41209210FBF06ED6D
:010E7E002251
:100C6700E4F508750906780A7C00FD7BFF7A0E79A2
:100C7700A4FE7F071208D078117C007D007BFF7AE5
:100C87000E79AB7E007F071208D0120F317BFF7AF7
:100C97000E7986E4FDFF120D9A7BFF7A0E79907D1F
:100CA70001E4FF120D9A7BFF7A0E797F7D017F06A3
:100CB700120D9A120ADE8F08E50860F7640A703A87
:100CC700F51778117C00FDFB7A00790A120AC1EF4B
:100CD7007BFF70167A0E7997FD7F0D120D9A7BFFB9
:100CE7007A0E799BE4FD7F0E80087A0E799EE4FDEB
:100CF7007F0D120D9A120E3B804CE508B40B1FE5D1
:100D070009D3940640401509AF097BFF7A0E79A2F3
:100D17007D01120D9A740B2509F8E4F68028E50881
:100D2700D3940B508EE509C3940C501AAF08120FD9
:100D370045AF0905097D01120D9AE5082430FF74B6
:100D47000A2509F8A607E509640C6003020CBAF541
:100D57001778117C00FDFB7A00790A120AC1EF703F
:100D67001F7BFF7A0E7997FD7F0D120D9A7BFF7A15
:100D77000E799BE4FD7F0E120D9A120E3B020CBA00
:100D87007BFF7A0E799EE4FD7F0D120D9A120E3BC2
:030D9700020CBA91
:100F1600C2A6C2A5C2A78F807F017E00120EF8D29C
:0B0F2600A77F017E00120EF8C2A72278
:0A0EB200AB1FAA20A9211208F6FFC9
:100EBC00D2A6C2A5C2A78F807F017E00120EF8D2E7
:0B0ECC00A77F017E00120EF8C2A722D3
:100F31007F38120F167F0C120F167F06120F167FC5
:040F410001020F1684
:050F6A007F01020F16DB
:080D9A008F1E8B1F8A208921A6
:100DA200E4F522E51ED3940F40047F0180027F0008
:100DB200EDD3940140047E0180027E00EE4F7078F4
:100DC200EDC394015039AB1FAA20A9211208F66085
:100DD20067C37410951EFFE522C39FE522500624C7
:100DE20080251E8004251E24B0FF120F16120EB29B
:100DF20074012521F521E43520F520052280C7ABB9
:100E02001FAA20A9211208F6602EC37410951EFF96
:100E1200E522C39FE522500624C0251E8004251E1C
:100E22002470FF120F16120EB274012521F521E46F
:080E32003520F520052280C7E0
:010E3A002295
:100ED700EFC3940A400A752331EF2426F5248008CE
:100EE700752330EF2430F524E4F525FB7A007923C8
:010EF70022D8
:0D0F4500EF2430F526E4F527FB7A0079262D
:010F5200227C
:100ADE00E4F5187590FFC2932097137F0AFE120E4D
:100AEE00F83097FD7F0A7E00120EF87518012096D9
:100AFE00147F0A7E00120EF83096FD7F0A7E0012D9
:100B0E000EF87518052095147F0A7E00120EF83027
:100B1E0095FD7F0A7E00120EF87518092094147F39
:100B2E000A7E00120EF83094FD7F0A7E00120EF837
:100B3E0075180D7590FFC2922097147F0A7E0012D1
:100B4E000EF83097FD7F0A7E00120EF875180220FF
:100B5E0096147F0A7E00120EF83096FD7F0A7E00F4
:100B6E00120EF87518062095147F0A7E00120EF8E4
:100B7E003095FD7F0A7E00120EF875180A20941427
:100B8E007F0A7E00120EF83094FD7F0A7E00120E50
:100B9E00F875180E7590FFC2912097147F0A7E008B
:100BAE00120EF83097FD7F0A7E00120EF8751803AC
:100BBE002096147F0A7E00120EF83096FD7F0A7E74
:100BCE0000120EF87518072095147F0A7E00120E7B
:100BDE00F83095FD7F0A7E00120EF875180B2094E2
:100BEE00147F0A7E00120EF83094FD7F0A7E0012EA
:100BFE000EF875180F7590FFC2902097147F0A7E1D
:100C0E0000120EF83097FD7F0A7E00120EF875184E
:100C1E00042096147F0A7E00120EF83096FD7F0A8D
:100C2E007E00120EF87518082095147F0A7E0012A9
:100C3E000EF83095FD7F0A7E00120EF875180C2006
:100C4E0094147F0A7E00120EF83094FD7F0A7E0007
:080C5E00120EF8751810AF1812
:010C6600226B
:0B0F5F00EF1FAC0670011E4C70F62264
:100EF800D3EF9400EE940040147D6E7C00ED1D70DD
:0D0F0800011CED4C70F7EF1F70E61E80E33A
:010F150022B9
:03000000020F5399
:0C0F5300787FE4F6D8FD758127020C675A
:10080000E709F608DFFA8046E709F208DFFA803EDA
:1008100088828C83E709F0A3DFFA8032E309F608C7
:10082000DFFA8078E309F208DFFA807088828C832F
:10083000E309F0A3DFFA806489828A83E0A3F608E3
:10084000DFFA805889828A83E0A3F208DFFA804CBD
:1008500080D280FA80C680D4806980F28033801094
:1008600080A680EA809A80A880DA80E280CA8033FD
:1008700089828A83ECFAE493A3C8C582C8CCC58375
:10088000CCF0A3C8C582C8CCC583CCDFE9DEE78045
:100890000D89828A83E493A3F608DFF9ECFAA9F0C4
:1008A000EDFB2289828A83ECFAE0A3C8C582C8CC1A
:1008B000C583CCF0A3C8C582C8CCC583CCDFEADE33
:1008C000E880DB89828A83E493A3F208DFF980CC95
:1008D00088F0EF60010E4E60C388F0ED2402B4048E
:1008E0000050B9F582EB2402B4040050AF23234535
:0608F00082239008507302
:1008F600BB010689828A83E0225002E722BBFE0200
:09090600E32289828A83E4932232
:10090F00BB010689828A83F0225002F722BBFE01C7
:02091F00F322C1
:10092100F8BB010DE58229F582E5833AF583E8F00C
:10093100225006E92582C8F622BBFE05E92582C8B8
:02094100F222A0
:10094300E3F5F009E208B5F06D606B80F3E3F5F0D1
:1009530009E608B5F060605E80F387F009E608B544
:10096300F054605280F487F009E208B5F04860461D
:1009730080F488828C8387F009E0A3B5F038603671
:1009830080F488828C8387F009E493A3B5F0276011
:100993002580F388828C83E3F5F009E0A3B5F01694
:1009A300601480F388828C83E3F5F009E493A3B5A4
:1009B300F004600280F2020A6E808580E7808E80F8
:1009C300D2803C8015806C807E809B80B5808B803C
:1009D300A1804F8070803A020A7A89828A83ECFA76
:1009E300E493F5F0A3C8C582C8CCC583CCE493A334
:1009F300C8C582C8CCC583CCB5F070606E80E18970
:100A0300828A83E493F5F0A3E208B5F05E605C802C
:100A1300F289828A83E0F5F0A3E608B5F04D604BD6
:100A230080F389828A83E0F5F0A3E208B5F03C60A5
:100A33003A80F389828A83E493F5F0A3E608B5F05C
:100A43002A602880F2805389828A83ECFAE493F542
:100A5300F0A3C8C582C8CCC583CCE0A3C8C582C8EF
:100A6300CCC583CCB5F004600280E27FFFB5F00211
:100A73000F2240027F012289828A83ECFAE0F5F09B
:100A8300A3C8C582C8CCC583CCE0A3C8C582C8CCE3
:100A9300C583CCB5F0D560D380E389828A83ECFA31
:100AA300E0F5F0A3C8C582C8CCC583CCE493A3C842
:100AB300C582C8CCC583CCB5F0B160AF80E288F005
:100AC300ED2402B4040050A3F582EB2402B4040025
:0B0AD300509923234582239009BC7337
:00000001FF
