:101051002D2D2D2D2D2D0050617373776F72643AF4
:1010610000496E7075743A00202020004F4B002D0E
:1010710000202020202000202020202020202020AF
:10108100202020202020200077656C636F6D650093
:101091002D2D2D2D2D4C6F636B65642D2D2D2D2D3B
:0F10A1000031323334353600000000000000000B
:0F10B0007524007525007526117B007A007909DB
:0610BF008B218A22892327
:1010C500E47BFF7A1079517D017F06120FB0AB21C9
:1010D500AA22A923740612090FE4FFAB24AA25A9A5
:0E10E500268F82758300E41209210FBF06EDED
:0110F30022DA
:100B6900E4F508750906780A7C00FD7BFF7A10799F
:100B7900A2FE7F071208D078117C007D007BFF7AE6
:100B89001079A97E007F071208D0E4F518751903BA
:100B9900751A021211737BFF7A107958E4FDFF125E
:100BA9000FB07BFF7A1079627D01E4FF120FB07BF1
:100BB900FF7A1079517D017F06120FB0120E278F2F
:100BC90008E50860F7640A705BF51778117C00FD89
:100BD900FB7A00790A120AF7EF70227BFF7A107903
:100BE90069FD7F0B120FB07BFF7A10796DE4FD7FF1
:0D0BF9000E120FB01210B0E4F518020C85BA
:100C0600751B45751C52751D52751E20E51824303E
:100C1600F51FE4F520FB7A00791BFD7F0B120FB060
:050C260005181210B0DA
:100C2B008058E508B40B1FE509D39406404C150911
:100C3B00AF097BFF7A1079707D01120FB0740B2511
:100C4B0009F8E4F68034E508D3940B4003020BC596
:070C5B00E509C3940C5023CE
:100C6200E5082430F51BE4F51CAF090509FB7A0001
:100C7200791B7D01120FB0E5082430FF740A2509A3
:030C8200F8A607CA
:100C8500E509640C6003020D3DF51778117C00FD44
:100C9500FB7A00790A120AF7EF70787BFF7A1079F0
:100CA50072FD7F0B120FB07BFF7A10796DE4FD7F2B
:100CB5000E120FB07BFF7A1079787D01E4FF120FD9
:100CC500B07BFF7A1079897D01E4FF120FB0121114
:100CD500871211871211877BFF7A107972E4FD7FE5
:100CE5000B120FB07BFF7A1079787D01E4FF120FAC
:100CF500B07BFF7A1079627D01E4FF120FB07BFFB4
:100D05007A1079517D017F06120FB01210B0E4F50B
:030D15001880251E
:100D1800751B45751C52751D52751E200518E51862
:100D28002430F51FE4F520FB7A00791BFD7F0B12B8
:050D38000FB01210B025
:090D3D00E51865196003020BC5FD
:100D4600F51B851A1CE51A75F002A4D39463E5F029
:100D56006480948040047F638005E51A25E0FF8F58
:100D66001A7BFF7A1079917D01E4FF120FB07BFFA9
:100D76007A107969E4FD7F0B120FB0D3E51C94005D
:100D8600E51B648094804060E51C940AE51B648042
:040D960094805016DF
:100D9A00E51C2430F51D751E73E4F51FFB7A0079F6
:040DAA001DFD7F0E9E
:020DAE00802E95
:100DB000AE1BAF1C7C007D0A120943EF2430F51DE9
:100DC000AE1BAF1C7C007D0A120943ED2430F51EDA
:100DD000751F73E4F520FB7A00791DFD7F0D120F5E
:010DE000B062
:100DE100121187E51C151C7097151B80937BFF7AE8
:100DF100107969E4FD7F0D120FB07BFF7A107978CD
:100E01007D01E4FF120FB0E4F5187BFF7A107962DF
:100E11007D01FF120FB07BFF7A1079517D017F06B2
:030E2100120FB0FD
:030E2400020BC5F9
:10115800C2A6C2A5C2A78F807F017E0012113AD213
:0B116800A77F017E0012113AC2A722EF
:0A10F400AB28AA29A92A1208F6FF6A
:1010FE00D2A6C2A5C2A78F807F017E0012113AD25E
:0B110E00A77F017E0012113AC2A72249
:101173007F381211587F0C1211587F061211587FB5
:0411830001021158FC
:0511AB007F0102115854
:080FB0008F278B288A29892A6A
:100FB800E4F52BE527D3940F40047F0180027F00DE
:100FC800EDD3940140047E0180027E00EE4F7078DC
:100FD800EDC394015039AB28AA29A92A1208F66052
:100FE80067C374109527FFE52BC39FE52B50062494
:100FF8008025278004252724B0FF1211581210F4E9
:101008007401252AF52AE43529F529052B80C7AB73
:1010180028AA29A92A1208F6602EC374109527FF5A
:10102800E52BC39FE52B500624C0252780042527E0
:101038002470FF1211581210F47401252AF52AE4BD
:081048003529F529052B80C7AD
:01105000227D
:10111900EFC3940A400A752C31EF2426F52D800877
:10112900752C30EF2430F52DE4F52EFB7A00792C5F
:011139002293
:100E2700E4F5217590FFC2932097137F0AFE1211F4
:100E37003A3097FD7F0A7E0012113A7521012096FC
:100E4700147F0A7E0012113A3096FD7F0A7E001247
:100E5700113A7521052095147F0A7E0012113A3048
:100E670095FD7F0A7E0012113A7521092094147F9F
:100E77000A7E0012113A3094FD7F0A7E0012113A61
:100E870075210D7590FFC2922097147F0A7E00127C
:100E9700113A3097FD7F0A7E0012113A7521022020
:100EA70096147F0A7E0012113A3096FD7F0A7E0063
:100EB70012113A7521062095147F0A7E0012113A05
:100EC7003095FD7F0A7E0012113A75210A2094148D
:100ED7007F0A7E0012113A3094FD7F0A7E001211BC
:100EE7003A75210E7590FFC2912097147F0A7E00F4
:100EF70012113A3097FD7F0A7E0012113A752103CD
:100F07002096147F0A7E0012113A3096FD7F0A7EE2
:100F17000012113A7521072095147F0A7E001211DD
:100F27003A3095FD7F0A7E0012113A75210B209405
:100F3700147F0A7E0012113A3094FD7F0A7E001258
:100F4700113A75210F7590FFC2902097147F0A7E82
:100F57000012113A3097FD7F0A7E0012113A75216F
:100F6700042096147F0A7E0012113A3096FD7F0AFC
:100F77007E0012113A7521082095147F0A7E00120F
:100F8700113A3095FD7F0A7E0012113A75210C2027
:100F970094147F0A7E0012113A3094FD7F0A7E0076
:080FA70012113A752110AF216F
:010FAF00221F
:0B11A000EF1FAC0670011E4C70F62221
:10113A00D3EF9400EE940040147D6E7C00ED1D7098
:0D114A00011CED4C70F7EF1F70E61E80E3F6
:011157002275
:0C1187007F087E9A7D7ADDFEDEFCDFFA38
:011193002239
:0300000002119456
:0C119400787FE4F6D8FD75812E020B690F
:10080000E709F608DFFA8046E709F208DFFA803EDA
:1008100088828C83E709F0A3DFFA8032E309F608C7
:10082000DFFA8078E309F208DFFA807088828C832F
:10083000E309F0A3DFFA806489828A83E0A3F608E3
:10084000DFFA805889828A83E0A3F208DFFA804CBD
:1008500080D280FA80C680D4806980F28033801094
:1008600080A680EA809A80A880DA80E280CA8033FD
:1008700089828A83ECFAE493A3C8C582C8CCC58375
:10088000CCF0A3C8C582C8CCC583CCDFE9DEE78045
:100890000D89828A83E493A3F608DFF9ECFAA9F0C4
:1008A000EDFB2289828A83ECFAE0A3C8C582C8CC1A
:1008B000C583CCF0A3C8C582C8CCC583CCDFEADE33
:1008C000E880DB89828A83E493A3F208DFF980CC95
:1008D00088F0EF60010E4E60C388F0ED2402B4048E
:1008E0000050B9F582EB2402B4040050AF23234535
:0608F00082239008507302
:1008F600BB010689828A83E0225002E722BBFE0200
:09090600E32289828A83E4932232
:10090F00BB010689828A83F0225002F722BBFE01C7
:02091F00F322C1
:10092100F8BB010DE58229F582E5833AF583E8F00C
:10093100225006E92582C8F622BBFE05E92582C8B8
:02094100F222A0
:10094300C2D5EC30E709B2D5E4C39DFDE49CFCEECF
:1009530030E715B2D5E4C39FFFE49EFE120B14C328
:10096300E49DFDE49CFC8003120B1430D507C3E423
:060973009FFFE49EFE223E
:10097900E3F5F009E208B5F06D606B80F3E3F5F09B
:1009890009E608B5F060605E80F387F009E608B50E
:10099900F054605280F487F009E208B5F0486046E7
:1009A90080F488828C8387F009E0A3B5F03860363B
:1009B90080F488828C8387F009E493A3B5F02760DB
:1009C9002580F388828C83E3F5F009E0A3B5F0165E
:1009D900601480F388828C83E3F5F009E493A3B56E
:1009E900F004600280F2020AA4808580E7808E808C
:1009F900D2803C8015806C807E809B80B5808B8006
:100A0900A1804F8070803A020AB089828A83ECFA09
:100A1900E493F5F0A3C8C582C8CCC583CCE493A3FD
:100A2900C8C582C8CCC583CCB5F070606E80E18939
:100A3900828A83E493F5F0A3E208B5F05E605C80F6
:100A4900F289828A83E0F5F0A3E608B5F04D604BA0
:100A590080F389828A83E0F5F0A3E208B5F03C606F
:100A69003A80F389828A83E493F5F0A3E608B5F026
:100A79002A602880F2805389828A83ECFAE493F50C
:100A8900F0A3C8C582C8CCC583CCE0A3C8C582C8B9
:100A9900CCC583CCB5F004600280E27FFFB5F002DB
:100AA9000F2240027F012289828A83ECFAE0F5F065
:100AB900A3C8C582C8CCC583CCE0A3C8C582C8CCAD
:100AC900C583CCB5F0D560D380E389828A83ECFAFB
:100AD900E0F5F0A3C8C582C8CCC583CCE493A3C80C
:100AE900C582C8CCC583CCB5F0B160AF80E288F0CF
:100AF900ED2402B4040050A3F582EB2402B40400EF
:0B0B0900509923234582239009F273CA
:100B1400BC000BBE0029EF8DF084FFADF022E4CCC5
:100B2400F875F008EF2FFFEE33FEEC33FCEE9DEC8E
:100B3400984005FCEE9DFE0FD5F0E9E4CEFD22EDD4
:100B4400F8F5F0EE8420D21CFEADF075F008EF2F1E
:100B5400FFED33FD4007985006D5F0F222C398FD0F
:050B64000FD5F0EA22AC
:00000001FF
